:020000020000FC
:04F000000C94B97E35
:04F028000C94C77D00
:10F08B0012010002FF010020EB03F92F000000002A
:10F09B000001090212000101008032090400000086
:04F0AB000000000061
:10F0B0000000827E0800717E747E767E787E7A7E85
:10F0C0007C7E7E7E807EA2010001000012BD01BD1B
:10F0D000F89A00B5089501E00895F999FECF12BDA0
:10F0E00001BD20BDFA9AF99AF6CFF999FECF0C949A
:10F0F00066780E944B7F22974801C9012A010BC004
:10F100001296A39400E8A01608F449C0830120E0F9
:10F1100030E00E94987F042D052909F448C0082F8B
:10F1200010E040E051E00E94E97EDC01A41BB50B39
:10F130003D0100E8A02E03C0042D052919F18D0121
:10F14000A817B907B0F0F40121914F0129832FEFDF
:10F15000420E521E242D252939F001914F010883BA
:10F160000FEF400E501E11C0F80131960491088334
:10F170000CC0F801249129833196E817F907A1F70B
:10F18000F401EBCF19D0088319839D0108811981FF
:10F190000E94C87F1296AA9479F6D301AA240CD0B3
:10F1A0000F3F1F4F09F4ACCF830116D0AFCF01E062
:10F1B0002296EBE00C94577F8D0115C09A938A93A9
:10F1C00080E090E08C0108D093958F3F0FEE900780
:10F1D000C8F389919991089520E030E00C94A27FC2
:10F1E000F801049108952297F8012591298304914B
:10F1F0000883122F22960895A89507EF04BFE0E632
:10F20000F0E0008108610083F08301810093000138
:10F2100000E80183F1830E945E7D0E94947DFDCF12
:10F220000E94527F239749D100E0FD0101870481AC
:10F230001581012B49F43DD1FD010781002309F41B
:10F24000C5C000E00783C2C00091E80002FFFCCF08
:10F250003FD106830DE011E013D2F801208310D2D4
:10F2600021830ED222830CD223830AD22483FD0170
:10F2700026812A9549F02250E9F02A9509F441C0E7
:10F280002A9509F485C0A0C0F8012081213011F42D
:10F2900021E001C020E0FD012387B2D00481FD01FF
:10F2A0000283F7D1FD0102850C3F11F423D18DC0FB
:10F2B00082D18BC0A5D02481FD012283E8EEF0E04D
:10F2C00020812B7F208320812F772083F801F2D0AB
:10F2D00029F00A9539F00A9591F077C000E0FD0118
:10F2E000038773C05FD103C04CD109F46EC050D105
:10F2F00045D10F3FC9F305E0FD01018766C001E07C
:10F30000EECFF8012081222329F02250C1F32A9563
:10F3100041F05BC0BED10E94DE780FEFFD01028795
:10F3200054C00181002319F00A9589F04EC056D0CF
:10F330000DEF04BF71D02FD103FFFDCF54D009B51D
:10F340000D7F09BD47D008E000936000FFCF46D095
:10F3500063D021D103FFFDCF46D03CD009B50D7F4E
:10F3600009BD0FEF1FE004C009811A810150104050
:10F3700009831A8309811A81012BB1F700E80093F0
:10F38000610000910001009361000C940000FFCF28
:10F39000F80121818FD019F00A9541F016C0235051
:10F3A000A0F477D102E0FD0100870FC0205339F0AF
:10F3B0002A9541F02F52A9F32A9599F306C002E04D
:10F3C0000883EFCF01E0FCCF64D173D02396E4E053
:10F3D0000C945E7FE8ED00810F7610C001E005BF60
:10F3E00000E005BF08950081077F008362D0F89494
:10F3F000E0EEF0E00081016001C0077F0083089526
:10F40000F8012181FD012183F80122812C932381C0
:10F41000FD012383F80108953CD14BC0BA93AA9310
:10F4200021974BD0EDE0F1E016960C911697035022
:10F4300019F00250C1F00BC03DD021F00A9569F0DF
:10F440000A9529F4FD0102850C3F29F453D0219639
:10F45000A991B99108955FD0FACFFD010181009380
:10F46000F1000C9109C0118125D019F00A9549F0DD
:10F47000EECF135018F400E00093F1001AD047D0FB
:10F48000E6CF105339F01A9539F01F5241F01A9512
:10F4900041F0F4CF08E5F0CF00E006D0EDCF02E078
:10F4A000FCCF04E001D0E8CF10E020E030E00C9485
:10F4B000B87F28C00081002308950DD00CD0A1E0B2
:10F4C000B1E006D0FD01048303D0058364D095CF5D
:10F4D0000091F10008950091F10008830091F1007E
:10F4E00008830895EBEEF0E0008100620083E8EE0F
:10F4F000008183CFF7DFE1E0F1E002E0008703E085
:10F50000018708954CD0008100FFFDCF089543D0BE
:10F5100002FFFDCFC0C00E94517FA1E0B1E042D008
:10F5200006C02CD00093F1002CD059F438D0082F0D
:10F53000092BA1F030D002FD11C0008100FFFDCFEA
:10F540004424042D4394003289F3FD0103850023F4
:10F550001FD039F311970E947578E4CF1CD000FFBB
:10F56000FDCF00810E7F0083008100FFFDCF008171
:10F5700002FFFDCF90D0E5E00C945D7F11970C94D5
:10F58000F07806D00F5F1F4F1C930E9301970895DC
:10F590000D911C910895E8EEF0E000810895FBDFE5
:10F5A0000E7F2CCFFD0182819381F2DF1197801BAA
:10F5B000910B019608950E944C7FA1E0B1E04D901F
:10F5C0005C9011976D907C9011970FE16022FD0186
:10F5D0000481158100521040048315830AC0FD0187
:10F5E0000385002331F4AC01940101E911E00E948C
:10F5F000797849D0B0F180E090E0420111C068DF35
:10F60000FC01EF56FE4F0083019601E0400E00E042
:10F61000501E0091F200002311F035D0C0F439D013
:10F6200032D0E8F2FC01B096E230F140C0F6009131
:10F63000E80002FFFCCF0091F200FD01248135813A
:10F64000201B304024833583E4CF42DF6A94662058
:10F65000E1F70385013099F613D082010E946D789D
:10F66000D4CF04811581012B21F095DF02FFFDCF5E
:10F6700012D095DF008100FFFDCFEAE00C94587FA7
:10F680002091F1000895FD010281138104151505F3
:10F690000895E8EEF0E000810B7F008300810F7792
:10F6A000ADCEEBEEF0E0208121602083018302816A
:10F6B0000270012B0283EDEE008102600083EEEE0A
:10F6C0000081000F00E0001F089500E00895E8EDBC
:10F6D000F0E000810F7B0083E9ED008101FF0AC0AB
:10F6E000F08BEBEE008100FD05C0F093E90010E324
:10F6F00002E0D7CFEACF0F770132C1F5112379F1BC
:10F700001A9559F01A9561F01A9569F01A9509F150
:10F710001A95D1F01A95E9F027C00E94107922C0FD
:10F720000E940E7A1FC024D000910A01018701E0D7
:10F730000187F187F187009109010187F1870E9414
:10F74000827A0E94877A0EC013D000910901018746
:10F7500007C002E00093090100E000930A0108D00D
:10F760000E94827A01E008950E94727A00E0089572
:10F77000E8EEF0E00081077F008308950895F6CF5A
:10F78000E9E9F2E02CD101831091F100012F11235E
:10F7900059F10A9509F1025019F10250A9F00A95A0
:10F7A00049F0025069F00A9599F00A9519F10A9505
:10F7B00029F12CC00181003809F461C00C947B7BD5
:10F7C00001810038D9F7C8C001810023B9F725C0ED
:10F7D0000181002399F734C00181033078F737C1E4
:10F7E0000181033058F7FEC00181003838F3033837
:10F7F00028F7C8C00181013809F73CC001810130F8
:10F8000059F41BD0008100FD07C0FCCF01810E948C
:10F810007B7B002309F42ED008951091E30010782B
:10F82000DED00F77012B0093E30007D0008100FFAB
:10F83000FDCFE3EE0081006820C09BD000811CC09A
:10F84000BA93AA93CCD0023088F4E8EEF0E01081AD
:10F85000177F1083E9E9F2E00283A8EEB0E00C9193
:10F860000E7F0C9302810E94BE7B01C003D0A99140
:10F87000B9910895E3D001C00E7F00830895BA9333
:10F88000AA932297A5E9B2E000E0FD01028310915E
:10F89000F100A5D0202F2A9519F02A95D1F01EC08D
:10F8A00002E103830BE810EF0D931C93119795D0A1
:10F8B000088395D009835DD0FD01038110E0288184
:10F8C00039810217130790F40F7171F401E002837C
:10F8D00024C002E103830DE910EFE6CF0E94BF7B55
:10F8E000002329F7ABD031C0128317C0238315C082
:10F8F000008100FFFDCF10E0012F1395003261F071
:10F90000ED91FC910591FC93EE930093F100FD01C4
:10F9100003810A95038381F75ED0FD0103810023F3
:10F9200019F016D002FFE4CF13D00E7F82D002FD73
:10F9300008C0FD010281013009F44DD009D002FF59
:10F94000FDCF00810B7F75D00F77008322968FCF7C
:10F95000E8EEF0E0008108950CD000919B02018751
:10F9600000810E7F0BD0008102FFFDCF00810B7F55
:10F9700005C0E8EEF0E00081077F7FCF00830081C3
:10F980000F777BCF9D0129D056D01181105829F0D7
:10F990001A9519F01A9589F01CC0EBDFF18700E089
:10F9A0000093F10018D0008102FFFDCF00810B7F92
:10F9B00040D00F770083D9010895A8EEB0E01C91E4
:10F9C000177F1C930F77E00FFB1F00810093F1005E
:10F9D000E6CF34D0EFCFBCDF4FCF01D000D00091C5
:10F9E000F10008953B2F4A2F26D001810130D1F03C
:10F9F0000230D1F45ED0B1F4F2DF0F7799F00093CA
:10FA0000E900ABEEB0E01C9110FF0CC01C9110623D
:10FA10001C93B093E90021E0E00FFB1F208307D087
:10FA20000E7F01C00BD00083A42FB32F089590DF69
:10FA3000077F00838FCFE9E9F2E00895EBEEF0E075
:10FA4000008100620083E8EE0081077F08953B2F6C
:10FA50006A2FF1DF0181002341F1013031F10230E1
:10FA600031F527D011F52091F1002F772093E9008F
:10FA7000ABEEB0E00C9100FF18C079F00C91006182
:10FA80000C9301E010E0422F0E94CB7E0093EA002D
:10FA9000B093EA000C9108600C93B093E900E20F78
:10FAA000FB1FB083C4DF0E7F01C0C8DF0083A62F19
:10FAB000BCCF95DF1091F100002308951B2F2A2F52
:10FAC000ECE9F2E000E0048301E005BF02E005BFDD
:10FAD0007894A7EDB0E011D000680C93A8ED0C91DC
:10FAE00000690C930AD001600C93B083B1830CEFD2
:10FAF00000930B01A22FB12F08950C910F7B0C9353
:10FB00000C910895E7ED0CD0E0EEC9D0D1D0E2EE33
:10FB100007D000810860BED0C0D0F0939E02089547
:10FB2000F0E000810160BDC0BA93AA93ECE9F2E075
:10FB3000A9EDB0E00C9100FF10C00281002369F430
:10FB400001E0028301E60383A2EE0C9108600C93AE
:10FB5000A0EE0C910E7F0C9303C00481013009F4D8
:10FB6000B4830581013041F401E00093EA00B093D1
:10FB7000EA00B0939B02B583B093E9000091E800DE
:10FB800003FF02C00E94C07BA991B9910895BA9366
:10FB9000AA938A93FA93EA933A922A921A920A9231
:10FBA0007A936A935A934A933A932A931A930A93AD
:10FBB0008FB7ACE9B2E0EAEDD2D000FF17C00EEF8C
:10FBC0000083E9ED008100FF0CC001E0FD0102832C
:10FBD00001E66AD0E2EEC3D00860008393DF5DD017
:10FBE00005C000E0FD01028302E65ED0EAEDB7D079
:10FBF00001FF0AC00DEF0083E9ED008101FF02C0A3
:10FC000003E601C004E64FD0A9D002FF02C00BEF0B
:10FC10000083008100FF0CC00EEF0083E2EE008144
:10FC2000006100830FEE0093E10094D005E63BD025
:10FC300095D004FF06C096D00FEE018727D006E6C8
:10FC400032D08CD005FF07C021D00FED0093E1002A
:10FC50008AD007E628D082D003FF05C007EF1AD06C
:10FC600008E621D005838FBF099119912991399117
:10FC700049915991699179910990199029903990F8
:10FC8000E991F9918991A991B9911895E2EE0081D4
:10FC90000F7E07C000830C94677BE0EEF0E00081EC
:10FCA0000E7F00830895FD01038301E0048308951E
:10FCB0008A9380E002C001E007BB50D002FD40C043
:10FCC00049D009B50D7F09BDF093B100F093B000A4
:10FCD000F093B20001E007BB082FE0EBF0EF0C94CB
:10FCE000067F06E109BD11C002E1FCCF0EE0FACFAC
:10FCF0000AE0F8CF06E0F6CF02E0F4CF0AE1F2CF57
:10FD00000EE1F0CF06E109BD80E08395E1EB27D05D
:10FD10000560008309B500FD03C007B30130D1F7CA
:10FD2000F083F18307B3013031F21CD001E007BB4F
:10FD3000E1EB00810560008307B30130E9F7BDCF37
:10FD4000F093B000F093B100F093B2000BEF00839A
:10FD500089910895E8ED00810062A3CFE1EEF0E023
:10FD600000810895E8ED00810F7D9BCF000088950C
:10FD7000FECF01EE0DBF02E00EBFC2EED4E00E9446
:10FD8000697F002311F00E94797F0E94FC780E9415
:10FD9000B67E0C94B67E4A951AF0000F111FFBCF69
:10FDA000089500241124EFE0001F111F001C111CF6
:10FDB0000416150610F0041A150AEA95AAF7001F92
:10FDC000111FA0010095109508955195419550403F
:10FDD0000895FF27552312F4F160F7DF112312F481
:10FDE000F09507D00E94D17EF0FD03D0F1FDEDCF5C
:10FDF000089511950195104008957591659155915B
:10FE00004591159011FA259035900895F9DF041B5E
:10FE100010E003C0F4DF041B150B20E030E005C048
:10FE2000ECDF041B150B260B370BB8F010FC17C0CA
:10FE300045910590E00FF11F0417100540E02407DD
:10FE4000340758F436F404910024F101E01BF00962
:10FE50000994E00FF11F25903590F101099411F4F8
:10FE6000D6F7F1CF31960EF0319650E060E070E0B9
:10FE700045914B3F48F089F34F3F29F04E3F11F039
:10FE80007591659155914591041B150B260B370B08
:10FE900039F318F3E7CFAA929A928A927A926A92E9
:10FEA0005A924A92BA93AA939A938A930895AA84EB
:10FEB000998488847F806E805D804C80BB81AA811C
:10FEC00099818881F0E00FB6F894CE0FDF1F0FBE46
:10FED000089501E0089520E006D0E9F708952591FE
:10FEE00002D0E9F708952D9301501040202F212BC7
:10FEF000089586EC90EFFC0105911491FC01329677
:10FF0000A591B491FC01349625913491422F432B55
:10FF100019F0F901E4DF01C0DEDF069610EF8C3C3A
:10FF2000910748F308952F930DD02F9101D0089594
:10FF30003DD0F12FE02F2BBF45E047BFE89536D0ED
:10FF400012D0089533D0F12FE02F43E047BFE8955A
:10FF50002DD008952BD0F12FE02F43E047BFE89537
:10FF600025D001D0089522D041E147BFE8951EC0B9
:10FF70001DD0F12FE02F41E247BFC895002D16C0DC
:10FF800015D0F12FE02F49E047BFC895002D0EC0D6
:10FF9000F32FE22F012E102E41E047BFE89506C057
:10FFA00005D0002E29E027BFE89500C0022E27B714
:10FFB00020FDFCCF202D0895022E27B726FDFCCF73
:04FFC000202D089553
:10FFE4000C94937F0C94B87F0C94C07F0C94C87FBE
:0CFFF4000C94987F0C94AA7F0C94D07F92
:040000030000F00009
:00000001FF
